S01A0000415652204361746D756C6C2053706C696E652E73726563A4
S11300002FC100004DC100004BC1000049C10000D8
S113001047C1000045C1000043C1000041C10000C8
S11300203FC100003DC100003BC1000039C10000D8
S113003037C1000035C1000033C1000031C10000E8
S11300402FC100002DC100002BC1000029C10000F8
S113005027C1000025C1000023C1000021C1000008
S11300601FC100001DC100001BC1000019C1000018
S113007017C1000015C1000013C1000011C1000028
S11300800FC100000DC100000BC1000009C1000038
S113009007C1000005C1000003C1000001C1000048
S11300A0FFC00000FDC00000FBC00000F9C000005C
S11300B0F7C00000F5C00000F3C00000F1C000006C
S11300C0EFC00000EDC00000EBC00000E9C000007C
S11300D0E7C00000E5C00000E3C00000E1C000008C
S11300E0DFC0000007634236B79BD8A71A396856A9
S11300F018AEBAAB558C1D3CB7CC5763BD6DEDFD46
S1130100753EF6177231BF000000803F0800000002
S1130110BE922449123EABAAAA2ABECDCCCC4C3EF8
S113012000000080BEABAAAAAA3E00000000BF00E7
S11301300000803F0000000000084178D3BB4387E3
S1130140D1133D190E3CC3BD4282AD2B3E68EC82F7
S113015076BED98FE1A93E4C80EFFFBE01C4FF7F7C
S11301603F000000000000407A10F35A00A0724ED5
S113017018090010A5D4E80000E87648170000E448
S11301800B54020000CA9A3B000000E1F505000090
S113019080969800000040420F000000A0860100F5
S11301A00000102700000000E803000000006400C5
S11301B0000000000A000000000001000000000030
S11301C02C76D888DC674F0823DFC1DFAE59E1B154
S11301D0B796E5E3E453C63AE651997696E8E6C263
S11301E08426EB898C9B62ED407C6FFCEFBC9C9F6A
S11301F040F2BAA56FA5F490055A2AF75C936B6C8C
S1130200F9676DC11BFCE0E40D47FEF520E6B5007F
S1130210D0ED902E0300943577050080841E0800ED
S113022000204E0A000000C80C333333330F986E9D
S113023012831141EF8D2114893BE65516CFFEE65A
S1130240DB18D1844B381BF77C1D901DA4BBE42420
S1130250203284725E228100C9F124ECA1E53D279D
S113026011241FBECFEFD1E2DEBFCDBF00E00CBF33
S113027012E0A0E0B2E0E2EEF7E100E00BBF02C062
S113028007900D92AC36B107D9F722E0ACE6B2E0A4
S113029001C01D92A837B207E1F724D00C94EF0BEC
S11302A0AFCE8093C4009093C5008EE08093C200CB
S11302B088E18093C1000895E0ECF0E0908195FF1F
S11302C0FDCF8093C6000895CF93DF93EC0188811E
S11302D0882329F02196F0DF89918111FCCFDF91E9
S11302E0CF910895CF93DF93CDB7DEB76E970FB656
S11302F0F894DEBF0FBECDBF2BE030E04DE050E000
S113030060E072E084E392E030D083E390E0C9DF00
S1130310A12CB12CB501882777FD8095982F14D591
S113032049D36B017C014AE0BE016B5E7F4FC5017E
S1130330CED78E010F5F1F4F22E047E0C701B60101
S1130340A6D7CE014596C0DF88E692E0BDDFC8019E
S1130350BBDF8AE692E0B8DF8FEFA81AB80A89E615
S1130360A81681E0B806B1F6FFCF90937702809388
S1130370760270936F0260936E02509373024093FF
S1130380720230936D0220936C0208958F929F92B3
S1130390AF92BF92CF92DF92EF92FF926B017C01FA
S11303A020E030E040E450E4E6D59B01AC01FAD310
S11303B04B015C01A7019601C701B60179D520E084
S11303C030E040E450E474D59B01AC01C501B401B4
S11303D0E8D320E030E040E85FE3E4D3FF90EF901F
S11303E0DF90CF90BF90AF909F908F9008958F92A1
S11303F09F92AF92BF92CF92DF92EF92FF926B01E6
S11304007C0120E030E040E450E4B5D54B015C01D0
S1130410A7019601C701B6014BD59B01AC01C2D31C
S11304209B01AC01C501B401BCD3A7019601BAD3A9
S1130430FF90EF90DF90CF90BF90AF909F908F9000
S113044008958F929F92AF92BF92CF92DF92EF92D4
S1130450FF926B017C0120E030E040E450E48BD556
S11304604B015C01A7019601C701B60121D520E02B
S113047030E040E450E41CD56B017C01A5019401FB
S1130480C501B4018FD39B01AC01C701B60189D367
S1130490FF90EF90DF90CF90BF90AF909F908F90A0
S11304A008958F929F92AF92BF92CF92DF92EF9274
S11304B0FF926B017C0120E030E040E450E45BD526
S11304C04B015C01A7019601C701B601F1D49B0160
S11304D0AC01C501B40165D3FF90EF90DF90CF90DC
S11304E0BF90AF909F908F9008954F925F926F92BC
S11304F07F928F929F92AF92BF92CF92DF92EF92B0
S1130500FF920F931F93CF93DF93CDB7DEB760971E
S11305100FB6F894DEBF0FBECDBF2B013C0129837B
S11305203A834B835C83E986FA860B871C872EDF2C
S113053029813A814B815C81BBD46D877E878F870B
S1130540988BC301B20153DF6D837E838F839887B9
S113055028A539A54AA55BA56CA57DA58EA59FA553
S113056020D369837A838B839C839B01AC016D8147
S11305707E818F8198859CD4A601950199D49B0195
S1130580AC016D857E858F8598890CD34B015C0108
S1130590C301B20156DFA80197018AD49B01AC01C3
S11305A0C501B401FFD24B015C01C301B20179DF83
S11305B09B01AC0169817A818B819C8179D42CA1C6
S11305C03DA14EA15FA174D49B01AC01C501B4014E
S11305D0E9D260960FB6F894DEBF0FBECDBFDF91AF
S11305E0CF911F910F91FF90EF90DF90CF90BF902C
S11305F0AF909F908F907F906F905F904F900895F1
S11306004F925F926F927F928F929F92AF92BF921E
S1130610CF92DF92EF92FF920F931F93CF93DF93CA
S113062020917602309177020196EC01CC0FDD1F08
S1130630CC0FDD1FF901EC0FFD1FC080D180E280DB
S1130640F3808E0108501109F901E00FF11F808039
S11306509180A280B380A5019401C701B60106D39D
S11306608823F9F080916E0290916F02C80FD91F10
S1130670FC01E00FF11F20813181428153816881A7
S113068079818A819B818DD22B013C01A501940142
S1130690C701B60186D29B01AC01C301B201EAD203
S11306A003C060E070E0CB01DF91CF911F910F9107
S11306B0FF90EF90DF90CF90BF90AF909F908F907E
S11306C07F906F905F904F9008952F923F924F923A
S11306D05F926F927F928F929F92AF92BF92CF92CE
S11306E0DF92EF92FF920F931F93CF93DF93CDB7D7
S11306F0DEB72E970FB6F894DEBF0FBECDBF6B01E9
S11307007C014A0180916C0290916D0281309105C7
S1130710B1F08B30910509F47EC0892B09F028C112
S1130720880C991C880C991CE0916E02F0916F0260
S1130730E80DF91D60817181828193811AC18091D4
S11307407602909177023A01660C771C660C771C4E
S1130750FC01E60DF71D80809180A280B380230107
S113076024E0420E511C9C01240D351DD9018D91AC
S11307709D910D90BC91A02D89839A83AB83BC83FA
S11307809C01AD01C501B40171D281110BC0E0918E
S11307906E02F0916F02E60DF71D60817181828116
S11307A09381E7C080916E0290916F02FC01E60D87
S11307B0F71D20813181428153812D833E834F83F4
S11307C05887FC01E40DF51D60817181828193815C
S11307D0E8D12B013C01A5019401C701B601E1D187
S11307E09B01AC01C301B20163D36B017C01A50180
S11307F0940169817A818B819C81D3D19B01AC0165
S1130800C701B60137D29B01AC016D817E818F8116
S11308109885C8D1AEC04115510549F4E0916E02E6
S1130820F0916F026481758186819781A2C00091E5
S1130830720210917302C80102978417950789F414
S11308400250104C000F111F000F111FE0916E0297
S1130850F0916F02E00FF11F6081718182819381B9
S113086088C02091760230917702440F551F440FBF
S1130870551F5A834983DA01A20FB31F2C90119696
S11308803C90119712965C9112975D8713968C9108
S11308908E87A981BA811496BE83AD83FD01E20FD0
S11308A0F31FB081B98721812A8732813B87438135
S11308B04C87222D332D452F582FC701B60171D1F6
S11308C06B017C019D858E85222D332D492F582F58
S11308D0B985AA85BB84AC846B2F7A2F8B2D9A2D76
S11308E060D19B01AC01C701B601C4D12B013C010D
S11308F0C40186DE5B016C01C80101978815990566
S113090021F0C40101967CDE04C060E070E080E068
S113091090E020916E0230916F02ED81FE81E20F32
S1130920F31FE080F18002811381E981FA81E20FF3
S1130930F31F2081318142815381AC85AF93BB8504
S1130940BF93EA85EF93F985FF93AE85AF93BD8599
S1130950BF933F922F929F938F937F936F93C30183
S1130960B201C3DD0FB6F894DEBF0FBECDBF01C028
S113097004C0562F472F382F292F652F742F832F0C
S1130980922F2E960FB6F894DEBF0FBECDBFDF9127
S1130990CF911F910F91FF90EF90DF90CF90BF9078
S11309A0AF909F908F907F906F905F904F903F900B
S11309B02F9008952F923F924F925F926F927F9261
S11309C08F929F92AF92BF92CF92DF92EF92FF925B
S11309D00F931F93CF93DF9300D000D0CDB7DEB732
S11309E06B017C0100917602109177029B01AC01AE
S11309F0D8016D917D918D919C9156D218164CF42D
S1130A00E0916E02F0916F02608171818281938125
S1130A10A7C080907202909073025401B1E0AB1AA7
S1130A20B0ECBB0AAA0CBB1CAA0CBB1CF801EA0D57
S1130A30FB1D2081318142815381C701B60134D22B
S1130A4018161CF1181419040CF089C0A090740233
S1130A50B0907502C501B401F3D38B839C839A8350
S1130A6089831C01220C331C220C331CF801E20D77
S1130A70F31D4080518062807380A7019601C301F9
S1130A80B201F4D081113BC029C080916E029091D3
S1130A906F02F501E80FF91F6081718182819381F2
S1130AA05FC08D819E818A0D9B1DB401C9D38B8348
S1130AB09C839A8389831C01220C331C220C331CD3
S1130AC0F801E20DF31D4080518062807380A7011C
S1130AD09601C301B201CAD0811113C0EB81E09326
S1130AE07402FC81F0937502E0916E02F0916F0242
S1130AF0E20DF31D608171818281938131C01E8278
S1130B001D82A3019201C701B601CED11816F4F4D7
S1130B10E981FA813196EE0FFF1FEE0FFF1FE00F00
S1130B20F11F2081318142815381C701B6019ED0DA
S1130B30882364F48B81809374029C819093750262
S1130B40482F592FC701B601C0DD0AC0AD81BE814F
S1130B501196BE83AD83A815B90509F0A2CF04C0D0
S1130B60562F472F382F292F652F742F832F922F1D
S1130B7026960FB6F894DEBF0FBECDBFDF91CF919E
S1130B801F910F91FF90EF90DF90CF90BF90AF90A7
S1130B909F908F907F906F905F904F903F902F9099
S1130BA008955058BB27AA270ED044C135D130F040
S1130BB03AD120F031F49F3F11F41EF42AC10EF40F
S1130BC0E095E7FB20C1E92F46D180F3BA1762070D
S1130BD073078407950718F071F49EF55EC10EF44F
S1130BE0E0950B2EBA2FA02D0B01B90190010C0139
S1130BF0CA01A0011124FF27591B99F0593F50F451
S1130C00503E68F11A16F040A22F232F342F4427A8
S1130C10585FF3CF469537952795A795F0405395A0
S1130C20C9F77EF41F16BA0B620B730B840BBAF070
S1130C309150A1F0FF0FBB1F661F771F881FC2F7DB
S1130C400EC0BA0F621F731F841F48F487957795EF
S1130C506795B795F7959E3F08F0B3CF9395880FA6
S1130C6008F09927EE0F979587950895A8D008F472
S1130C7081E008950CD0DEC0D6D040F0CDD030F065
S1130C8021F45F3F19F0BFC0511108C1C2C0E3D0C5
S1130C9098F39923C9F35523B1F3951B550BBB273F
S1130CA0AA2762177307840738F09F5F5F4F220FEC
S1130CB0331F441FAA1FA9F333D00E2E3AF0E0E8E5
S1130CC030D091505040E695001CCAF729D0FE2F31
S1130CD027D0660F771F881FBB1F261737074807C3
S1130CE0AB07B0E809F0BB0B802DBF01FF27935879
S1130CF05F4F2AF09E3F510568F085C0CFC05F3F2B
S1130D00ECF3983EDCF3869577956795B795F79560
S1130D109F5FC9F7880F911D9695879597F9089558
S1130D20E1E0660F771F881FBB1F621773078407F4
S1130D30BA0720F0621B730B840BBA0BEE1F88F703
S1130D40E0950895E89409C097FB3EF4909580954A
S1130D50709561957F4F8F4F9F4F9923A9F0F92F7D
S1130D6096E9BB279395F695879577956795B795FB
S1130D70F111F8CFFAF4BB0F11F460FF1BC06F5FE1
S1130D807F4F8F4F9F4F16C0882311F096E911C0F3
S1130D90772321F09EE8872F762F05C0662371F014
S1130DA096E8862F70E060E02AF09A95660F771F28
S1130DB0881FDAF7880F9695879597F90895990F04
S1130DC00008550FAA0BE0E8FEEF16161706E80711
S1130DD0F907C0F012161306E407F50798F0621B32
S1130DE0730B840B950B39F40A2661F0232B242B07
S1130DF0252B21F408950A2609F4A140A6958FEF26
S1130E00811D811D089597F99F6780E870E060E077
S1130E1008959FEF80EC089500240A94161617068F
S1130E2018060906089500240A94121613061406D7
S1130E3005060895092E0394000C11F4882352F03A
S1130E40BB0F40F4BF2B11F460FF04C06F5F7F4FF2
S1130E508F4F9F4F089557FD9058440F551F59F0D9
S1130E605F3F71F04795880F97FB991F61F09F3F93
S1130E7079F087950895121613061406551FF2CFBC
S1130E804695F1DF08C0161617061806991FF1CF0C
S1130E9086957105610508940895E894BB27662733
S1130EA07727CB0197F908958ADF08F48FEF089527
S1130EB00BD0C0CFB1DF28F0B6DF18F0952309F0CE
S1130EC0A2CFA7CF1124EACFC6DFA0F3959FD1F319
S1130ED0950F50E0551F629FF001729FBB27F00DE4
S1130EE0B11D639FAA27F00DB11DAA1F649F662739
S1130EF0B00DA11D661F829F2227B00DA11D621F88
S1130F00739FB00DA11D621F839FA00D611D221F41
S1130F10749F3327A00D611D231F849F600D211D25
S1130F20822F762F6A2F11249F5750408AF0E1F0C8
S1130F3088234AF0EE0FFF1FBB1F661F771F881F11
S1130F4091505040A9F79E3F510570F05CCFA6CF59
S1130F505F3FECF3983EDCF3869577956795B795FC
S1130F60F795E7959F5FC1F7FE2B880F911D969526
S1130F70879597F90895FA01EE0FFF1F3096210522
S1130F80310599F16115710561F48038BFE39B0760
S1130F9049F168949038810561F08038BFEF9B0770
S1130FA041F0992342F5FF3FE1053105210511F197
S1130FB0E8940894E795D901AA2329F4AB2FBE2F0E
S1130FC0F85FD0F310C0FF5F70F4A695E0F7F7392F
S1130FD050F019F0FF3A38F49F779F930CD00F909C
S1130FE007FC905808953EF014CF60E070E080E86C
S1130FF09FE308954FE79F775F934F933F932F931A
S11310009ED02F913F914F915F9152DF05C019F40B
S11310100EF0F9CE42CFFDCE26DFC8F39638C0F7E6
S113102007F80F92E8942BE33AEA48EB5FE74EDFC8
S11310300F920F920F924DB75EB70F92C0D0E4EEAD
S1131040F0E016D04F915F91EF91FF91E595EE1F7F
S1131050FF1F49F0FE57E0684427EE0F441FFA953E
S1131060E1F74195550B32D00F9007FE26C0089545
S1131070DF93CF931F930F93FF92EF92DF927B0145
S11310808C01689405C0DA2EEF011EDFFE01E8949E
S1131090A5912591359145915591AEF3EF0193DDDD
S11310A0FE019701A801DA9479F7DF90EF90FF90A1
S11310B00F911F91CF91DF9108959B01AC0160E0E6
S11310C070E080E89FE3D6CD9ECEACC0CCDEE8F3E2
S11310D09923D9F3940F511DBBF39150504094F0D0
S11310E059F0882332F0660F771F881F91505040C3
S11310F0C1F79E3F510544F7880F911D969587953A
S113110097F908955F3FACF0983E9CF0BB27869515
S113111077956795B79508F4B1609395C1F7BB0FC0
S113112058F711F460FFE8CF6F5F7F4F8F4F9F4FE9
S1131130E3CFB4CE0EF076C06CCE689464CE93DE6A
S1131140C8F39923D1F3C6F3DF93CF931F930F937F
S1131150FF92C92FDD2788232AF02197660F771F76
S1131160881FDAF720E030E040E85FEB9FE388393E
S113117020F0803E30F021968F7714DDECE0F1E032
S113118003C010DDE9E3F1E073DF8B01BE01EC0184
S1131190FB2E6F5771097595771F880B990BD4DD5A
S11311A028E132E741E35FE38FDEAF2D9801AE0122
S11311B0FF900F911F91CF91DF9105DD3BCEFA0196
S11311C0DC01AA0FBB1F9B01AC01BF5728F42227E7
S11311D03327442750781FC0B75188F4AB2F00241D
S11311E0469537952795011CA395D2F3002069F005
S11311F0220F331F441FB395DAF30DD0D2CC6130E4
S11312007105A0E88A07B94630F49B01AC01662752
S1131210772788279078309621F020833183428382
S1131220538308959F3F31F0915020F4879577952B
S11312306795B795880F911D9695879597F90895A9
S113124097FB072E16F4009406D077FD08D00BD038
S113125007FC05D03EF4909581959F4F08957095B5
S113126061957F4F0895AA1BBB1B51E107C0AA1FBC
S1131270BB1FA617B70710F0A61BB70B881F991F33
S11312805A95A9F780959095BC01CD010895EF92E8
S11312900F931F93CF93DF93E80147FF02C034E11C
S11312A001C034E0E42FFF27E7FDF095F7FF03C00A
S11312B0F195E195F109E32E022F2E2FAE012AD0EC
S11312C0CE01DF91CF911F910F91EF900895BB272D
S11312D04A3031F4992322F4BDE2909581959F4FD1
S11312E001C0BB27FB015527AA27880F991FAA1FF6
S11312F0A41710F0A41B83955051B9F7A05DAA332D
S113130008F0A95DA193009779F7B111B1931192F7
S1131310CB0155C26F927F929F92AF92BF92CF92B0
S1131320DF92EF92FF920F931F93CF93DF93CDB78A
S1131330DEB729970FB6F894DEBF0FBECDBF6A01A2
S1131340B22E102F0C3320F4FF24F394F00E02C0BD
S11313504CE3F42E0F2D27E0AE014F5F5F4F57D1C2
S11313607981272F2970213031F0E1FC06C0E0FC9F
S113137006C060E005C06DE203C06BE201C060E23C
S1131380AE2DA07173FF36C0662311F084E001C056
S113139083E08B1510F4B81A01C0B12CA1110BC055
S11313A0F6018B2D90E2882319F091938150FBCFA5
S11313B0CB0CD11CB12C662331F0F601608396016D
S11313C02F5F3F4F6901C6010396E2FE05C02EE47C
S11313D0F601208331E404C02EE6F601208331E6D1
S11313E031832283FC012B2D30E22223F1F131934E
S11313F02150FBCF72FF40C0662311F084E001C08E
S113140083E08B1510F4B81A01C0B12CA1110BC0E4
S1131410F6018B2D90E2882319F091938150FBCF34
S1131420CB0CD11CB12C662331F0F60160839601FC
S11314302F5F3F4F6901C6010396E2FE07C029E40E
S1131440F60120832EE4218326E406C029E6F60172
S113145020832EE6218326E62283FC012B2D30E215
S1131460222319F031932150FBCFFC01EB0DF11D28
S113147010828EEF9FEFB7C0B1E0611101C0B0E000
S11314804B2F50E01816190624F49C012F5F3F4F90
S113149002C021E030E0240F351F112329F0412F31
S11314A050E04F5F5F4F02C040E050E0420F531FD7
S11314B02B2D30E04217530714F4B41A01C0B12C99
S11314C02E2D287159F4F6012B2D30E2222319F028
S11314D031932150FBCFCB0CD11CB12CBB2331F069
S11314E0F601608396012F5F3F4F6901A1110BC084
S11314F0F6012B2D30E3222319F031932150FBCF39
S1131500CB0CD11CB12CF80E0A81372F3071A32ECD
S113151074FF03C0013309F4FA941F142CF42F2D23
S1131520293018F028E001C021E0682F392F97FFF7
S113153002C060E030E0462F532F612C712C3EE254
S1131540932EBC01621B71099B01DC01A41BB50B2A
S1131550E1E0F0E0EC0FFD1FAE0FBF1FE12EF12C18
S1131560F194E194F1084F3FFFEF5F0731F4F60186
S11315709082B6016F5F7F4F6B01841795074CF023
S11315802417350734F4BD01660D771DFB01118165
S113159001C010E341505109FFEF6F1A7F0AB601F1
S11315A06F5F7F4F4E155F0524F0F60110836B01CA
S11315B0DACF4817590739F4063320F4053319F400
S11315C0A11001C011E3F6011083FB018B2D90E201
S11315D0882319F091938150FBCFFB01EB0DF11D92
S11315E0108280E090E029960FB6F894DEBF0FBE1B
S11315F0CDBFDF91CF911F910F91FF90EF90DF90BE
S1131600CF90BF90AF909F907F906F9008952830B7
S113161008F027E03327DA01990F311D87FD916027
S113162000966105710539F432602E5F3D9330E315
S11316302A95E1F708959F3F30F0803871056105E0
S113164009F03C5F3C5F3D93913008F08068911D48
S1131650DF93CF931F930F93FF92EF92192F987FED
S11316609695E92F96959695E90FFF27E054FE4F3E
S113167099273327EE24FF24A701E7010590089456
S1131680079428F4360FE71EF81E491F511D660FF4
S1131690771F881F991F0694A1F70590079428F4D3
S11316A0E70EF81E491F561FC11D770F881F991F8B
S11316B0661F0694A1F70590079428F4F80E491FB5
S11316C0561FC71FD11D880F991F661F771F0694C9
S11316D0A1F70590079420F4490F561FC71FD81F80
S11316E0990F661F771F881F0694A9F78491109598
S11316F0177041F0D695C79557954795F794E79499
S11317001A95C1F7E6E6F1E06894159015913591C4
S11317106591959105907FE27395E118F10A430B69
S1131720560BC90BD009C0F7E10CF11E431F561F1D
S1131730C91FD01D7EF4703311F48A95E6CFE89466
S1131740015030F0080F0AF40027021708F4202F84
S11317502395022F7A3328F079E37D932A95E9F7CC
S113176010C07D932A9589F60694979567953795C9
S113177017951794E118F10A430B560BC90BD009BE
S113178098F023957E9173957A3308F070E37C93F7
S11317902013B8F77E9170617D9330F0839571E3E7
S11317A07D9370E32A95E1F71124EF90FF900F9158
S11317B01F91CF91DF91992787FD90950895DC01C2
S11317C0FC01672F71917723E1F7329704C07C9174
S11317D06D9370836291AE17BF07C8F30895F894B0
S10517E0FFCF35
S11317E20080774400408344002080440080774492
S11317F2000057440000434400002F4400004B44BF
S113180200805E440080774400408344002080448A
S1131812008077440000F0C10000A0C00000204115
S1131822000034420000B4420000074300003E437B
S113183200008743008095430000A5430080B14324
S10F18420000B9430080CA4320000D00E0
S9030000FC
